:1000000098C00000B1C00000AFC00000ADC000004B
:10001000ABC00000A9C00000A7C00000A5C0000040
:10002000A3C00000A1C000009FC0000093C3000057
:100030009BC0000099C0000097C0000095C0000060
:1000400093C0000091C000008FC000008DC0000070
:100050008BC0000089C0000087C0000019C20000EA
:10006000E4C1000081C000007FC000007DC000002E
:100070007BC000001201100100000008EB034820C3
:100080000000010200010902650002010080FA0976
:100090000400000001010000092401000109000121
:1000A00001090401000201030000072401000141CD
:1000B00000062402010100062402020200092403B2
:1000C00001030102010009240302040101010009E6
:1000D0000501024000050000052501010109058216
:1000E0000240000500000525010103040309041E68
:1000F000034A0075007300740069006E0020005709
:100100000061006C006200650063006B000000206D
:10011000035500530042002D004D004900440049A2
:100120000020004200720069006400670065000062
:10013000000011241FBECFEFD2E0DEBFCDBF11E023
:10014000A0E0B1E0E4E5FFE002C005900D92AC3123
:10015000B107D9F712E0ACE1B1E001C01D92A533BF
:10016000B107E1F7EBD0F4C64BCF809123018F703C
:100170008C3070F48730D8F4853028F48330B8F4AC
:100180008230F1F40EC0853049F08630C9F409C0E0
:100190008E3069F08E3028F08F3091F480912401F8
:1001A00005C0809124012FD1809125012CC180911F
:1001B000240129D18091250126D18091260123C1D6
:1001C0000895CF93DF9387FF69C0803F51F48093F8
:1001D0001C0191E090931D0193E090931E0194E027
:1001E00058C0873F19F590911D01992331F495E08E
:1001F00090931F01809320010DC0913031F496E05F
:1002000090931F018093210105C097E090931F01F7
:100210008093220180E091E06FE171E041D610927D
:100220002001109221011092220110C080931C0124
:1002300010921D01863F68F095E090931F01809316
:10024000200180E091E06FE171E02AD610921C015C
:100250005CC0833F39F492E090931F0180932001AA
:1002600081E008C0823F49F493E090931F0180939E
:10027000200182E080931E0148C0982F92959F70C4
:1002800090931C01E92FF0E0E45FFE4F2081209362
:100290001E0190931F018093200137C020911C0103
:1002A000222399F190911D01203FA1F4992399F304
:1002B000913019F48093210128C0923031F5809358
:1002C0002201CFE1D1E080E091E0BE01E9D51982C1
:1002D0001A8217C0992319F48093210104C0913028
:1002E00011F4809322019F5F90931D0180911E0164
:1002F000981759F480E091E06FE171E0D1D5109248
:1003000021011092220110921D01DF91CF910895D9
:1003100084B7877F84BF88E10FB6F894809360002C
:10032000109260000FBE90E080E80FB6F8948093C2
:100330006100909361000FBEFED126C00F931F9302
:10034000DF93CF930F92CDB7DEB7E2DF78941982B7
:100350008E010F5F1F4F80E091E063E271E0D7D51F
:10036000882309F002DFC8012ED0882311F089818B
:1003700028DF80E091E0C6D562D5EDCF08950895DD
:1003800080E091E077C50895E9ECF0E08081886134
:100390008083808180688083EAECF0E080818E60D9
:1003A00080831092CD008FE18093CC0010922701C2
:1003B00080912701809328021092280180912801C2
:1003C0008093270208953091280120912702321747
:1003D000B1F020912801E22FFF27E7FDF095E855C5
:1003E000FE4F3081FC0130832F5F209328018091E4
:1003F00028018F3731F41092280181E0089580E0C0
:10040000089581E0089590912802E92FFF27E7FDE4
:10041000F095E75DFE4F80839F5F90932802E9ECA3
:10042000F0E080818062808308951F920F920FB662
:100430000F9211248F939F93EF93FF939091280233
:1004400080912701981799F080912701E82FFF27C5
:10045000E7FDF095E75DFE4F90819093CE008F5FB2
:1004600080932701809127018F3749F406C080913E
:10047000C9008F7D8093C90002C010922701FF91AF
:10048000EF919F918F910F900FBE0F901F90189535
:100490001F920F920FB60F9211248F939F93EF9399
:1004A000FF9380912702E82FFF27E7FDF0959091B9
:1004B000CE00E855FE4F90838F5F80932702809196
:1004C00027028F3711F410922702FF91EF919F912D
:1004D0008F910F900FBE0F901F901895923029F0BA
:1004E000933041F09130F9F419C025E630E0E6E8A8
:1004F000F0E01DC0813049F0813018F0823099F46D
:1005000008C0EBEEF0E0249107C0EFEEF0E024919C
:1005100003C0EFE0F1E0249130E009C022E130E0D7
:10052000E4E7F0E004C020E030E0E0E0F0E0DA01F1
:100530001196FC93EE93C9010895982F2CC0292F92
:100540002F702093E900981739F07091EC002091FA
:10055000ED005091F00003C0242F762F50E021FFD2
:1005600019C03091EB003E7F3093EB003091ED00ED
:100570003D7F3093ED003091EB0031603093EB0024
:100580007093EC002093ED005093F0002091EE006A
:1005900027FF08C09F5F953090F28F708093E9002D
:1005A00081E0089580E008950F931F93CF93DF9328
:1005B000162FC82FD92F00E02AC09881992329F13E
:1005C0006B81E981FA812C81892F8F70853018F534
:1005D0006295660F660F607C991F9927991F692B9A
:1005E000223010F096E001C092E028E030E040E0D8
:1005F00003C04F5F220F331F2E173F07D0F34295E2
:10060000407F492B9ADF882331F00F5F2596011731
:10061000A0F281E001C080E0DF91CF911F910F91A6
:10062000089580912D0287FF11C003C08EB38823E7
:10063000B1F08091E80082FFF9CF8091E8008B77DC
:100640008093E80008958EB3882349F08091E800F4
:1006500080FFF9CF8091E8008E778093E8000895BD
:100660008091E4009091E50044E62091EC0020FFA9
:1006700025C02091E80020FD15C02EB32223A1F053
:100680002530A1F02091EB0025FD12C02091E4005F
:100690003091E5002817390741F3442359F04150C0
:1006A000C901E3CF80E0089582E0089583E00895D2
:1006B00081E0089584E0089580E008952091E800A5
:1006C00022FFDBCFF9CF40D042D08091D8008F7786
:1006D0008093D8008091D80080688093D800809162
:1006E000D8008F7D8093D80084E089BD86E089BDE5
:1006F00009B400FEFDCF1EBA1092290210922B02FF
:1007000010922A0280E060E042E017DF8091E10071
:100710008E7F8093E1008091E20081608093E2000F
:100720008091E20088608093E2008091E0008E7FFB
:100730008093E0000895E3E6F0E080818E7F80837F
:1007400081E080932C02BFCF1092E20008951092B6
:10075000E10008951F920F920FB60F9211242F936C
:100760003F934F935F936F937F938F939F93AF9339
:10077000BF93EF93FF938091E10082FF0AC08091C5
:10078000E20082FF06C08091E1008B7F8093E10050
:1007900055D38091E10080FF16C08091E20080FF78
:1007A00012C08091E2008E7F8093E2008091E2008F
:1007B00080618093E2008091D80080628093D800AD
:1007C00019BC1EBADCDD8091E10084FF2CC0809151
:1007D000E20084FF28C084E089BD86E089BD09B4B9
:1007E00000FEFDCF8091D8008F7D8093D80080914E
:1007F000E1008F7E8093E1008091E2008F7E809304
:10080000E2008091E20081608093E2008091290201
:10081000882321F48091E30087FF02C084E001C0B7
:1008200081E08EBBABDD8091E10083FF21C0809130
:10083000E20083FF1DC08091E100877F8093E1008B
:1008400082E08EBB109229028091E1008E7F80931E
:10085000E1008091E2008E7F8093E2008091E200CF
:1008600080618093E20080E060E042E066DEE6D2F4
:10087000FF91EF91BF91AF919F918F917F916F9178
:100880005F914F913F912F910F900FBE0F901F904E
:1008900018958F929F92BF92CF92DF92EF92FF9224
:1008A0000F931F93DF93CF930F92CDB7DEB7E82E50
:1008B0004B018A019983D4DEB82E99818823C9F52A
:1008C000F92E0115110539F0F80120813181821AC4
:1008D000930AE20EF31ECC24DD2426C08091E800AA
:1008E00085FD17C08091E8008E778093E800A7D23D
:1008F0000115110551F0F801808191818C0D9D1D2C
:100900009183808325E0B22E14C0AADE882361F093
:100910000FC0F70181917F018093F1000894810855
:1009200091080894C11CD11C81149104B9F601C02E
:10093000B82E8B2D0F90CF91DF911F910F91FF90CB
:10094000EF90DF90CF90BF909F908F9008958F92FF
:100950009F92BF92CF92DF92EF92FF920F931F93DD
:10096000DF93CF930F92CDB7DEB7E82E4B018A010C
:10097000998376DEB82E99818823C9F5F92E011561
:10098000110539F0F80120813181821A930AE20EB3
:10099000F31ECC24DD2426C08091E80085FD17C01D
:1009A0008091E8008B778093E80049D2011511050A
:1009B00051F0F801808191818C0D9D1D9183808380
:1009C00045E0B42E14C04CDE882361F00FC0809146
:1009D000F100F70181937F01089481089108089440
:1009E000C11CD11C81149104B9F601C0B82E8B2D05
:1009F0000F90CF91DF911F910F91FF90EF90DF90BB
:100A0000CF90BF909F908F900895282F392FF90194
:100A100080913302909134028617970718F4BC0135
:100A200020E034C061157105D9F78091E8008E7718
:100A30008093E800F5CF8EB38823E9F18530B9F1D2
:100A40008091E80083FD35C08091E80082FD29C0D7
:100A50008091E80080FF1AC08091F20090E006C00B
:100A600021912093F100615070400196611571054C
:100A700019F088309105A0F321E08830910509F044
:100A800020E08091E8008E778093E8006115710581
:100A900091F6222381F605C08EB3882361F085305C
:100AA00061F08091E80082FFF7CF80E0089583E055
:100AB000089581E0089582E0089583E00895E82F85
:100AC000F92F80913302909134028617970718F41A
:100AD000BC0120E036C061157105D9F78091E800AE
:100AE0008E778093E800F5CF8EB3882309F43EC05B
:100AF0008530C1F18091E80083FD36C08091E80027
:100B000082FD2AC08091E80080FF1BC08091F20026
:100B100090E007C024912093F1003196615070401D
:100B200001966115710519F08830910598F321E05F
:100B30008830910509F020E08091E8008E7780935D
:100B4000E8006115710581F6222371F605C08EB3A8
:100B5000882361F0853061F08091E80082FFF7CF53
:100B600080E0089583E0089581E0089582E008958B
:100B700083E008950F931F93DF93CF93CDB7DEB734
:100B8000AC970FB6F894DEBF0FBECDBFEDE2F2E03A
:100B90008091F100819322E0E533F207C9F7F3DB9E
:100BA0008091E80083FF31C180912D0220912E02B7
:100BB000253009F484C0263040F42130A1F12130E1
:100BC00070F0233009F021C12EC0283009F4F0C0A4
:100BD000293009F4FFC0263009F017C193C08038CE
:100BE00021F0823809F011C108C080912A02909149
:100BF0002B02992371F082600CC0809131028F70BA
:100C00008093E9009091EB0081E095FF80E01092E5
:100C1000E9009091E800977F9093E8008093F100BD
:100C20001092F100D0C0882319F0823009F0EDC095
:100C300090E08F719070009729F08230910509F053
:100C4000E4C00BC080912F02813009F0DEC0233058
:100C500009F080E080932B022CC080912F02882322
:100C600041F5209131022F7009F4CFC02093E900A3
:100C70008091EB0080FF1DC080912E02833021F413
:100C80008091EB00806213C08091EB0080618093C3
:100C9000EB0081E090E002C0880F991F2A95E2F7EF
:100CA0008093EA001092EA008091EB0088608093C4
:100CB000EB001092E9008091E800877F87C08823CD
:100CC00009F0A3C010912F021F770FB7F8948091FD
:100CD000E800877F8093E800A4DC8091E80080FF33
:100CE000FCCF8091E3008078812B8093E3008068C3
:100CF0008093E300112311F083E001C082E08EBBFA
:100D00000FBF83C08058823008F07FC080912F02CF
:100D10009091300223E08C3D920791F583E08C8323
:100D20008AE28B835FB7F894DE01159680E090E04D
:100D30004EE061E2E42FF0E060935700E49180FF21
:100D400003C0E295EF704F5FEF702E2F30E0EA3076
:100D500018F0295C3F4F02C0205D3F4F2D933D931B
:100D600001968431910531F75FBF8091E800877F5C
:100D70008093E800CE0103966AE270E046DE12C07E
:100D800060913102AE014F5F5F4FA8DBBC0100975D
:100D900009F43BC08091E800877F8093E800898157
:100DA0009A818DDE8091E8008B778093E8002DC0DA
:100DB000803859F58091E800877F8093E800809122
:100DC00029028093F1008091E8008E778093E800FB
:100DD00028DC1BC08823C9F490912F029230A8F41C
:100DE0008091E800877F8093E8009093290219DCC6
:100DF00080912902882321F48091E30087FF02C0BB
:100E000084E001C081E08EBBBBDA8091E80083FF03
:100E10000AC08091EB0080628093EB008091E80033
:100E2000877F8093E800AC960FB6F894DEBF0FBEC4
:100E3000CDBFCF91DF911F910F9108950895CF936A
:100E40008EB38823A9F08091E9008F709091EC0017
:100E500090FF02C0C0E801C0C0E0C82B1092E900BA
:100E60008091E80083FF01C085DECF70C093E90068
:100E7000CF910895CF93DF93EC011B8682E08C83A2
:100E80008987CE01019661E08FDB882329F0CE01AE
:100E9000069661E089DB01C080E0DF91CF91089583
:100EA000FC01CB012EB32430A9F421812F702093B3
:100EB000E90064E070E040E050E0EBDC882359F4A6
:100EC0009091E80095FD07C09091E8009E7790937F
:100ED000E800089582E008952EB3243079F4FC01EF
:100EE00081818F708093E9008091F200882341F026
:100EF0008091E8008E778093E800B2CB82E008957D
:100F000080E008952EB3243009F4E6CF0895FC0163
:100F1000CB012EB32430C1F426812F702093E90039
:100F20002091E80025FF10C064E070E040E050E050
:100F30000EDD8091E80085FD09C08091E8008B7787
:100F40008093E80081E0089580E0089581E00895AD
:040F5000F894FFCF43
:100F54000182400000010140000001000000000087
:0C0F640000000000020202020101020075
:00000001FF
